:020000040800F2
:10000000C8090020F94700088D0500088F05000881
:1000100093050008970500089B05000800000000F4
:100020000000000000000000000000009F05000824
:10003000A105000800000000A3050008A5050008B0
:100040001348000813480008134800081348000824
:100050001348000813480008134800081348000814
:100060001348000813480008134800081348000804
:1000700013480008134800081348000813480008F4
:1000800013480008134800081348000813480008E4
:1000900039090008134800081348000813480008ED
:1000A00013480008134800081348000813480008C4
:1000B00013480008134800081348000813480008B4
:1000C00013480008134800081348000813480008A4
:1000D000134800087F470008134800081348000829
:1000E0001348000813480008134800081348000884
:1000F0001348000813480008134800081348000874
:100100001348000813480008134800081348000863
:100110001348000813480008134800081348000853
:100120001348000813480008134800081348000843
:100130001348000813480008134800081348000833
:1001400013480008E90A000813480008134800088B
:100150001348000813480008134800081348000813
:100160001348000813480008134800081348000803
:1001700013480008134800081348000813480008F3
:1001800013480008134800081348000813480008E3
:1001900013480008134800081348000813480008D3
:1001A00013480008134800081348000800F002F83C
:1001B00000F041F80AA090E8000C82448344AAF1C0
:1001C0000107DA4501D100F036F8AFF2090EBAE8BE
:1001D0000F0013F0010F18BFFB1A43F0010318477B
:1001E0000462000024620000103A24BF78C878C17D
:1001F000FAD8520724BF30C830C144BF04680C602D
:10020000704700000023002400250026103A28BF74
:1002100078C1FBD8520728BF30C148BF0B60704778
:10022000642905F05787002070471FB506F0A4F831
:100230001FBD10B510BD06F06DF81146FFF7F5FFB4
:1002400000F06EF806F08BF803B4FFF7F2FF03BC82
:1002500004F032FA10B53EA005F0FCFE45A005F012
:10026000F9FE4DA005F0F6FE54A005F0F3FE5DA0EA
:1002700005F0F0FE64A005F0EDFE6BA005F0EAFECF
:1002800071A005F0E7FE77A005F0E4FE10BD10B503
:100290000446072C3FD2DFE804F03E040D1A232C5D
:1002A000350077A005F0D6FE00F088FC79A005F0B7
:1002B000D1FE33E07BA005F0CDFE00F094FC4FF4BE
:1002C000FA7004F0D9F97BA005F0C4FE26E07EA008
:1002D00005F0C0FE00F0AAFC81A005F0BBFE1DE009
:1002E00085A005F0B7FE00F000FD8AA005F0B2FE83
:1002F00014E08EA005F0AEFE00F044FD92A005F0E3
:10030000A9FE0BE096A005F0A5FE02F065F899A005
:1003100005F0A0FE02E0FFF79DFF00BF00BF10BD8B
:1003200000F080FA4FF4FA7004F0A6F9FFF792FF9C
:100330000DE09548007838B193480078FFF7A7FFA3
:1003400000209149087002E00A2004F095F9F0E7D6
:100350000D0ABBB6D3ADCAB9D3C320494E4E464FE2
:10036000532053434120C7FDB6AFB2E2CAD4A3A184
:100370000D0A0000CFEACFB8CDA8D0C5D0ADD2E9E4
:10038000B2CEBCFB20494E4E464F532057494B49F5
:1003900020A3A10D0A000000B7A2CBCD203120C2BE
:1003A000D6D1AFD7DCCFDFC9CFB5C4D6B4D0D0C695
:1003B000F7494420A3A10D0A00000000B7A2CBCD4D
:1003C000203220CAB9D3C3C4ACC8CF4944B3F5CA9C
:1003D000BCBBAF534341BFD8D6C6C6F720A3A10DBF
:1003E0000A000000B7A2CBCD203320BDF8C8EBCE69
:1003F000BBD6C3B9E9C1E3B2E2CAD4B3CCD0F220D0
:10040000A3A10D0A00000000B7A2CBCD203420BD6F
:10041000F8C8EBD5FDB7B4D7AAB2E2CAD4B3CCD0F2
:10042000F220A3A10D0A0000B7A2CBCD203520BD3C
:10043000F8C8EBB8DFB5CDCBD9B2E2CAD4B3CCD0D3
:10044000F220A3A10D0A0000B7A2CBCD203620BD1B
:10045000ABD6B4D0D0C6F7B9D8BBFA20A3A10D0A49
:1004600000000000B7A2CBCD203720CFD4CABEB049
:10047000EFD6FAD0C5CFA220A3A10D0A000000003C
:100480000D0AD6B4D0D0C2D6D1AFB3CCD0F2A3A18E
:100490000D0A0000C2D6D1AFBDE1CAF8A3A10D0A72
:1004A000000000000D0A534341B3F5CABCBBAFA323
:1004B000A10D0A00534341B3F5CABCBBAFBDE1CAAD
:1004C000F8A3A10D0A0000000D0ABDF8C8EBCEBBD1
:1004D000D6C3B9E9C1E3B2E2CAD4A3A10D0A0000B0
:1004E000CEBBD6C3B9E9C1E3B2E2CAD4BDE1CAF812
:1004F000A3A10D0A000000000D0ABDF8C8EBD5FD50
:10050000B7B4D7AAC7D0BBBBB2E2CAD4A3A10D0A65
:1005100000000000D5FDB7B4D7AAC7D0BBBBB2E27C
:10052000CAD4BDE1CAF8A3A10D0A00000D0ABDF8A6
:10053000C8EBB8DFB5CDCBD9C7D0BBBBB2E2CAD40C
:10054000A3A10D0A00000000B8DFB5CDCBD9C7D0FC
:10055000BBBBB2E2CAD4BDE1CAF8A3A10D0A000038
:100560000D0AD6B4D0D0C6F7B9D8BBFAA3A10D0AEC
:1005700000000000D6B4D0D0C6F7B9D8BBFABDE1B0
:10058000CAF8A3A10D0A000000000020704700BFB8
:10059000FEE700BFFEE700BFFEE700BFFEE77047D3
:1005A00070477047704700000CB500200190009024
:1005B0008348006840F480308149086000BF80486B
:1005C000006800F4003000900198401C01900098F1
:1005D00018B90198B0F5A04FF1D17948006800F43E
:1005E000003010B10120009001E000200090009840
:1005F000012860D172484030006840F08050704956
:10060000403108606F48006840F440406D49086020
:100610006B48083000686A4908310860084600687D
:1006200040F4004008600846006840F4A0500860AC
:100630006548091F0860081F006840F08070091FA6
:10064000086000BF5E48006800F000700028F9D024
:100650005C48006840F480305A49086000BF59483F
:10066000406800F480300028F9D05648006840F413
:1006700000305449086000BF5248406800F4003020
:100680000028F9D040F20570504908604C48083005
:10069000006820F003004A490831086008460068F5
:1006A00040F00200086000BF45480830006800F0D4
:1006B0000C000828F8D10CBD10B54548006840F47E
:1006C0007000434908603E48006840F001003C4922
:1006D000086000203A4908310860394800683D49FF
:1006E0000840374908603C48091D0860081F006839
:1006F00020F48020091F0860002031490C31086077
:10070000FFF752FF4FF0006031498039086010BD9B
:1007100070B500200022022300240221284D083554
:100720002D6805F00C0020B1042806D0082834D12B
:1007300007E02A4D2A4E356033E02A4D284E3560B9
:100740002FE01F4D2D1D2D68C5F380541C4D2D1D10
:100750002D6805F03F0154B1224DB5FBF1F5184E5F
:10076000361D3668C6F3881605FB06F209E01B4DF8
:10077000B5FBF1F5124E361D3668C6F3881605FB3B
:1007800006F20F4D2D1D2D68C5F301456D1C6B0044
:10079000B2FBF3F5124E356003E0104D104E35609C
:1007A00000BF00BF064D08352D68C5F303150E4E7A
:1007B000705D0B4D2D68C540094E356070BD000061
:1007C0000038024000700040085A4007003C0240D8
:1007D00088ED00E0FFFFF6FE103000240024F40056
:1007E0000400002000127A00080000201CB501213E
:1007F000082004F0B8FB0C20009001208DF80400C4
:1008000000208DF8060003208DF8050001208DF8EA
:10081000070069460D4804F005F90C210B4804F067
:100820007FF91CBD10B54FF4A06004F005F8FFF788
:10083000DDFFB42003F0BEFE4FF4E13003F049FFCA
:1008400000F006F800F0D9F810BD0000000C0240DE
:1008500000B58BB00121480604F0CCFB012108460D
:1008600004F081FB4FF4C050099002208DF828005D
:1008700000208DF82A0001208DF82B0003208DF830
:10088000290009A9C94804F0CDF809220B21C7485D
:1008900004F053F909220C21C44804F04EF9002059
:1008A0008DF81E008DF81F008DF8200001208DF8B6
:1008B000210000208DF822008DF823008DF81A0009
:1008C0008DF81B0001208DF81C008DF81D000920FB
:1008D000ADF8180006A9B64804F0DBFE00208DF83C
:1008E00012008DF8130001208DF814000020ADF8DF
:1008F0000800ADF80A00ADF80C00ADF80E00ADF838
:10090000100001208DF8150002A804F04CFF1420FF
:100910008DF8040000208DF805008DF806000120F8
:100920008DF8070001A803F08CFF01220221A048E6
:1009300005F038FA0BB000BD00B585B06A4600215D
:100940009B4805F014F9684603F046FD05B000BD6C
:100950002DE9F04186B006468846174600240196E8
:10096000029600208DF80C008DF80D008DF80E70A9
:1009700000BF06E018F804100DF10F000155601CCF
:1009800084B2BC42F6DB40F6FF7400BF01A9884880
:1009900004F0F8FF0546042D04D1201EA4F1010146
:1009A0008CB2F3D1042D03D1022006B0BDE8F08152
:1009B000002401E0601C84B229467D4805F07AF8E5
:1009C00018B940F6FF708442F4DB40F6FF708442B1
:1009D00001DB0120E9E70020E7E710B5044600212C
:1009E000734805F047F908B9002010BD22460021E0
:1009F0006F4805F0BCF8A07AF7E700B58BB001218D
:100A0000880604F0F7FA0121022004F0ACFA602015
:100A1000099002208DF8280000208DF82A0001207E
:100A20008DF82B0003208DF8290009A9614803F0F7
:100A3000F9FF092205215F4804F07FF80922062109
:100A40005C4804F07AF800208DF81E008DF81F0035
:100A50008DF8200001208DF8210000208DF8220063
:100A60008DF823008DF81A008DF81B0001208DF8F9
:100A70001C008DF81D000920ADF8180006A94E488D
:100A800004F007FE0E2004F01FFF0E208DF8120068
:100A900000208DF8130001208DF814000020ADF81F
:100AA0000800ADF80A00ADF80C00ADF80E0001200A
:100AB000ADF810008DF8150002A804F074FE412076
:100AC0008DF8040000208DF805008DF80600012047
:100AD0008DF8070001A803F0B4FE0122102136486A
:100AE00005F060F90BB000BD00B585B06A46012184
:100AF000314805F03CF8684603F06EFC05B000BDD7
:100B00002DE9F04186B00646884617460024019636
:100B1000029600208DF80C008DF80D008DF80E70F7
:100B200000BF06E018F804100DF10F000155601C1D
:100B300084B2BC42F6DB40F6FF7400BF01A91E4838
:100B400004F020FF0546042D04D1201EA4F101016C
:100B50008CB2F3D1042D03D1022006B0BDE8F081A0
:100B6000002401E0601C84B22946134804F0A2FF6F
:100B700018B940F6FF708442F4DB40F6FF708442FF
:100B800001DB0120E9E70020E7E710B50446012179
:100B9000094805F06FF808B9002010BD2246012170
:100BA000054804F0E4FFA07AF7E7000000000240E7
:100BB00000640040000402400068004010B50120BD
:100BC000A0490870022048709F48486002209F4951
:100BD000087048709E4848609A4800F091F99B4818
:100BE00000F08EF910BD10B5012096490870022062
:100BF00048709548486002209449087048709448AD
:100C000048609049012000F0AAF99049022000F0C4
:100C1000A6F9012000F02CF98E490860022000F0AE
:100C200027F98D49086001F08FFB10BD10B5894888
:100C3000006890F8DE0000B910BD8748006890F8A1
:100C4000DE0000B9F8E701220621104601F0D5FBCD
:100C500001220621022001F0D0FB9FED800A012035
:100C600001F065FC00BF0021012001F086FC64203A
:100C700003F002FD7748006890ED490ADFED780A3D
:100C8000B4EEE00AF1EE10FAEDDC7248006890ED87
:100C9000490ADFED740AB4EEE00AF1EE10FAE2D38D
:100CA0009FED6E0A022001F042FC00BF00210220ED
:100CB00001F063FC642003F0DFFC6748006890EDFE
:100CC000490ADFED670AB4EEE00AF1EE10FAEDDC56
:100CD0006148006890ED490ADFED620AB4EEE00A6F
:100CE000F1EE10FAE2D300BFA6E710B5594800684C
:100CF00090F8DE0000B910BD5748006890F8DE009B
:100D000000B9F8E7FFF792FFB0EE000A012001F00A
:100D10000EFCB0EE000A5048006801F01FFC4FF4D2
:100D20007A7003F0A9FC9FED4D0A012001F0FFFB52
:100D30009FED4A0A4848006801F010FC4FF47A70B1
:100D400003F09AFCB0EE000A012001F0F0FBB0EED7
:100D5000000A4148006801F001FC4FF47A7003F08A
:100D60008BFC9FED3E0A012001F0E1FB9FED3B0A69
:100D70003948006801F0F2FB4FF47A7003F07CFC14
:100D800000BFB8E710B53348006890F8DE0000B93E
:100D900010BD3148006890F8DE0000B9F8E7012284
:100DA0000721104601F029FB01220721022001F052
:100DB00024FB9FED2D0A012001F0F9FF9FED2A0A87
:100DC0002548006802F00AF84FF47A7003F054FCEA
:100DD0009FED260A012001F0EAFF9FED240A1E483C
:100DE000006801F0FBFF4FF47A7003F045FC9FEDC3
:100DF0001E0A012001F0DBFF9FED1B0A1648006868
:100E000001F0ECFF4FF47A7003F036FC9FED170A07
:100E1000012001F0CCFF9FED150A0F48006801F09A
:100E2000DDFF4FF47A7003F027FC9FED0C0A0120E0
:100E300001F0BDFF9FED090A0748006801F0CEFFF1
:100E400000BFA5E72000002051090008280000206D
:100E5000010B0008180000201C000020000000000A
:100E6000CDCCCC3DCDCCCCBD00009643000016448B
:100E70000246002111E001EB411000EB4000F94B6C
:100E800013F82000904206D101EB411000EB400026
:100E900003EB80007047481CC1B20229EBDB002045
:100EA000F8E72DE9F04180460E4600274046FFF75F
:100EB000DFFF044614B90420BDE8F0810020207251
:100EC0000021204602F0EEFD05460DB12846F3E76D
:100ED00026B9C82003F088FB2846EDE700BF207A3A
:100EE000012805D038467F1C4FF6FF718842F6D3A3
:100EF0004FF6FF70874201D30320DDE72846DBE78A
:100F000070B5E4B0054600264FF4C672D54901A875
:100F100005F01CF9D348C560012410E0D1490C70DC
:100F2000E0B20121FFF7BDFF38B9701CC6B22B78C3
:100F300022463E21CCA005F08DF8601C84B2FF2C27
:100F4000ECDD4FF4C67201A9C64805F0FFF82A7817
:100F500033464521D44805F07DF864B070BDD34ACE
:100F60001268022A00D37047D04A126802EB42127C
:100F700002EB4202BB4B03F82200CC4A126802EBA0
:100F8000421202EB420203EB8202D160C74A1268AE
:100F9000521CC64B1A6000BFE5E72DE9F04106463A
:100FA00000276EBB002428E004EB441000EB400057
:100FB000AC4911F8208004EB441000EB400001EB39
:100FC0008000C76804EB441101EB4101A54A02EB24
:100FD00081004FF4C67105F0EBF804EB441000EB10
:100FE0004000A04901F8208004EB441000EB4000D1
:100FF00001EB8000C760601CC4B2022CD4DB0FE0A0
:101000003046FFF735FF05460DB9BDE8F081EF68C2
:101010004FF4C671284605F0CBF82E70EF6000BF84
:1010200000BFF2E72DE9F04180460E46002700247C
:101030004046FFF71DFF044614B90420BDE8F081C7
:10104000002161772B21204602F02CFD05460DB1D1
:101050002846F3E726B9C82003F0C6FA2846EDE78C
:1010600000BF607F012805D038467F1C4FF6FF7116
:101070008842F6D34FF6FF70874201D30320DDE7A5
:101080002846DBE770B5064600243046FFF7F0FE41
:1010900004460CB9042070BD657A002060722846B1
:1010A000F9E72DE9F04180460E460027002440462E
:1010B000FFF7DEFE044614B90420BDE8F0810021EC
:1010C00084F840106421204602F0ECFC05460DB186
:1010D0002846F2E726B9C82003F086FA2846ECE74E
:1010E00000BF94F84000012805D038467F1C4FF619
:1010F000FF718842F5D34FF6FF70874201D303207A
:10110000DBE72846D9E72DE9F04180460E46002767
:1011100000244046FFF7ACFE044614B90420BDE8A5
:10112000F081002184F83F106221204602F0BAFCD1
:1011300005460DB12846F2E726B9C82003F054FA57
:101140002846ECE700BF94F83F00012805D0384658
:101150007F1C4FF6FF718842F5D34FF6FF70874230
:1011600001D30320DBE72846D9E72DE9F04180468B
:101170000E46002700244046FFF77AFE044614B9C5
:101180000420BDE8F081002184F842106E21204641
:1011900002F088FC05460DB12846F2E726B9C820C2
:1011A00003F022FA2846ECE700BF94F84200012839
:1011B00005D038467F1C4FF6FF718842F5D34FF6B5
:1011C000FF70874201D30320DBE72846D9E72DE9EA
:1011D000F04180460E46002700244046FFF748FEB7
:1011E000044614B90420BDE8F081002184F83F10C2
:1011F0006C21204602F056FC05460DB12846F2E768
:1012000026B9C82003F0F0F92846ECE700BF94F8AF
:101210003F00012805D038467F1C4FF6FF718842F9
:10122000F5D34FF6FF70874201D30320DBE7284652
:10123000D9E72DE9F04180460E46002700244046BC
:10124000FFF716FE044614B90420BDE8F081002122
:1012500084F846106021204602F024FC05463DB388
:101260002846F2E74C00002046494C453A202E2EF5
:101270005C5343415C5343415F4150492E632C20F2
:101280004C494E453A2025643A20466F756E6420DD
:10129000494420256420696E2063616E506F72742A
:1012A0002025640D0A00000084630008300000203F
:1012B000FFE726B9C82003F097F92846C5E700BF25
:1012C00094F84600012805D038467F1C4FF6FF7180
:1012D0008842F5D34FF6FF70874201D30320B4E76D
:1012E0002846B2E72DE9F04180460E46002700244B
:1012F0004046FFF7BDFD044614B90420BDE8F08167
:10130000002184F845105F21204602F0CBFB054602
:101310000DB12846F2E726B9C82003F065F9284642
:10132000ECE700BF94F84500012805D038467F1C43
:101330004FF6FF718842F5D34FF6FF70874201D315
:101340000320DBE72846D9E72DE9F04180460E4629
:10135000002700244046FFF78BFD044614B9042003
:10136000BDE8F081002184F8D3107F21204602F0EF
:1013700099FB05460DB12846F2E726B9C82003F0CF
:1013800033F92846ECE700BF94F8D300012805D0D4
:1013900038467F1C4FF6FF718842F5D34FF6FF7039
:1013A000874201D30320DBE72846D9E72DE9F04146
:1013B00080460E46002700244046FFF759FD0446AC
:1013C00014B90420BDE8F081002184F843104521C0
:1013D000204602F067FB05460DB12846F2E726B924
:1013E000C82003F001F92846ECE700BF94F8430059
:1013F000012805D038467F1C4FF6FF718842F5D38F
:101400004FF6FF70874201D30320DBE72846D9E778
:101410002DE9F04180460E46002700244046FFF7A4
:1014200027FD044614B90420BDE8F081002184F8AA
:10143000CD105921204602F035FB05460DB1284656
:10144000F2E726B9C82003F0CFF82846ECE700BF42
:1014500094F8CD00012805D038467F1C4FF6FF7167
:101460008842F5D34FF6FF70874201D30320DBE7B4
:101470002846D9E72DE9F04180460E460027002492
:101480004046FFF7F5FC044614B90420BDE8F0819E
:10149000002184F83C107321204602F003FB05462E
:1014A0000DB12846F2E726B9C82003F09DF828467A
:1014B000ECE700BF94F83C00012805D038467F1CBB
:1014C0004FF6FF718842F5D34FF6FF70874201D384
:1014D0000320DBE72846D9E72DE9F04180460E4698
:1014E000002700244046FFF7C3FC044614B904203B
:1014F000BDE8F081002161767121204602F0D2FA28
:1015000005460DB12846F3E726B9C82003F06CF86C
:101510002846EDE700BF607E012805D038467F1CD5
:101520004FF6FF718842F6D34FF6FF70874201D322
:101530000320DDE72846DBE72DE9F04180460E4633
:10154000002700244046FFF793FC044614B904200A
:10155000BDE8F081002184F8BC101621204602F07D
:10156000A1FA05460DB12846F2E726B9C82003F0D6
:101570003BF82846ECE700BF94F8BC00012805D0F2
:1015800038467F1C4FF6FF718842F5D34FF6FF7047
:10159000874201D30320DBE72846D9E72DE9F04154
:1015A00080460E4600270024002184F8BB104046E8
:1015B000FFF75EFC044614B90420BDE8F081152154
:1015C000204602F06FFA05460DB12846F5E726B928
:1015D000C82003F009F82846EFE700BF94F8BB00E5
:1015E000012805D038467F1C4FF6FF718842F5D39D
:1015F0004FF6FF70874201D30320DEE72846DCE781
:101600002DE9F04180460E46002700244046FFF7B2
:101610002FFC044614B90420BDE8F081002184F8B1
:10162000C4102221204602F03DFA05460DB128469D
:10163000F2E726B9C82002F0D7FF2846ECE700BF42
:1016400094F8C400012805D038467F1C4FF6FF717E
:101650008842F5D34FF6FF70874201D30320DBE7C2
:101660002846D9E72DE9F04180460E4600270024A0
:101670004046FFF7FDFB044614B90420BDE8F081A5
:10168000002184F8C6102421204602F00BFA0546FA
:101690000DB12846F2E726B9C82002F0A5FF28467A
:1016A000ECE700BF94F8C600012805D038467F1C3F
:1016B0004FF6FF718842F5D34FF6FF70874201D392
:1016C0000320DBE72846D9E72DE9F04180460E46A6
:1016D000002700244046FFF7CBFB044614B9042042
:1016E000BDE8F081002184F8C5102321204602F0D6
:1016F000D9F905460DB12846F2E726B9C82002F00F
:1017000073FF2846ECE700BF94F8C500012805D018
:1017100038467F1C4FF6FF718842F5D34FF6FF70B5
:10172000874201D30320DBE72846D9E72DE9F041C2
:1017300080460E46002700244046FFF799FB0446EA
:1017400014B90420BDE8F081002184F8CE105B219B
:10175000204602F0A7F905460DB12846F2E726B962
:10176000C82002F041FF2846ECE700BF94F8CE0005
:10177000012805D038467F1C4FF6FF718842F5D30B
:101780004FF6FF70874201D30320DBE72846D9E7F5
:101790002DE9F04180460E46002700244046FFF721
:1017A00067FB044614B90420BDE8F081002184F8E9
:1017B0003D107721204602F075F905460DB1284607
:1017C000F2E726B9C82002F00FFF2846ECE700BF79
:1017D00094F83D00012805D038467F1C4FF6FF7174
:1017E0008842F5D34FF6FF70874201D30320DBE731
:1017F0002846D9E72DE9F04180460E46002700240F
:101800004046FFF735FB044614B90420BDE8F081DB
:101810000021A1767521204602F044F905460DB15C
:101820002846F3E726B9C82002F0DEFE2846EDE799
:1018300000BFA07E012805D038467F1C4FF6FF71FF
:101840008842F6D34FF6FF70874201D30320DDE7CD
:101850002846DBE72DE9F04180460E4600270024AC
:101860004046FFF705FB044614B90420BDE8F081AB
:10187000002184F8C7103621204602F013F90546EE
:101880000DB12846F2E726B9C82002F0ADFE284681
:10189000ECE700BF94F8C700012805D038467F1C4C
:1018A0004FF6FF718842F5D34FF6FF70874201D3A0
:1018B0000320DBE72846D9E72DE9F04180460E46B4
:1018C000002700244046FFF7D3FA044614B9042049
:1018D000BDE8F081002184F8C8103721204602F0CD
:1018E000E1F805460DB12846F2E726B9C82002F016
:1018F0007BFE2846ECE700BF94F8C800012805D01D
:1019000038467F1C4FF6FF718842F5D34FF6FF70C3
:10191000874201D30320DBE72846D9E72DE9F041D0
:1019200080460E46002700244046FFF7A1FA0446F1
:1019300014B90420BDE8F081002184F8BE101821FC
:10194000204602F0AFF805460DB12846F2E726B969
:10195000C82002F049FE2846ECE700BF94F8BE001C
:10196000012805D038467F1C4FF6FF718842F5D319
:101970004FF6FF70874201D30320DBE72846D9E703
:101980002DE9F04180460E46002700244046FFF72F
:101990006FFA044614B90420BDE8F081002184F8F0
:1019A000BD101721204602F07DF805460DB12846EE
:1019B000F2E726B9C82002F017FE2846ECE700BF80
:1019C00094F8BD00012805D038467F1C4FF6FF7102
:1019D0008842F5D34FF6FF70874201D30320DBE73F
:1019E0002846D9E72DE9F04180460E46002700241D
:1019F0004046FFF73DFA044614B90420BDE8F081E3
:101A0000002184F8C1101C21204602F04BF8054645
:101A10000DB12846F2E726B9C82002F0E5FD2846B8
:101A2000ECE700BF94F8C100012805D038467F1CC0
:101A30004FF6FF718842F5D34FF6FF70874201D30E
:101A40000320DBE72846D9E72DE9F04180460E4622
:101A5000002700244046FFF70BFA044614B904207F
:101A6000BDE8F081002184F8C3101E21204602F059
:101A700019F805460DB12846F2E726B9C82002F04C
:101A8000B3FD2846ECE700BF94F8C300012805D059
:101A900038467F1C4FF6FF718842F5D34FF6FF7032
:101AA000874201D30320DBE72846D9E72DE9F0413F
:101AB00080460E46002700244046FFF7D9F9044629
:101AC00014B90420BDE8F081002184F8C2101D2162
:101AD000204601F0E7FF05460DB12846F2E726B99A
:101AE000C82002F081FD2846ECE700BF94F8C20050
:101AF000012805D038467F1C4FF6FF718842F5D388
:101B00004FF6FF70874201D30320DBE72846D9E771
:101B10002DE9F04180460E46002700244046FFF79D
:101B2000A7F9044614B90420BDE8F081002184F827
:101B30003E107B21204601F0B5FF05460DB1284639
:101B4000F2E726B9C82002F04FFD2846ECE700BFB7
:101B500094F83E00012805D038467F1C4FF6FF71EF
:101B60008842F5D34FF6FF70874201D30320DBE7AD
:101B70002846D9E72DE9F04180460E46002700248B
:101B80004046FFF775F9044614B90420BDE8F0811A
:101B90000021E1767921204601F084FF05460DB150
:101BA0002846F3E726B9C82002F01EFD2846EDE7D7
:101BB00000BFE07E012805D038467F1C4FF6FF713C
:101BC0008842F6D34FF6FF70874201D30320DDE74A
:101BD0002846DBE72DE9F04180460E460027002429
:101BE0004046FFF745F9044614B90420BDE8F081EA
:101BF000002121778B21204601F054FF05460DB1CD
:101C00002846F3E726B9C82002F0EEFC2846EDE7A7
:101C100000BF207F012805D038467F1C4FF6FF719A
:101C20008842F6D34FF6FF70874201D30320DDE7E9
:101C30002846DBE72DE9F04180460E4600270024C8
:101C40004046FFF715F9044614B90420BDE8F081B9
:101C5000002184F8CC108621204601F023FF0546A0
:101C60000DB12846F2E726B9C82002F0BDFC28468F
:101C7000ECE700BF94F8CC00012805D038467F1C63
:101C80004FF6FF718842F5D34FF6FF70874201D3BC
:101C90000320DBE72846D9E72DE9F04180460E46D0
:101CA000002700244046FFF7E3F8044614B9042057
:101CB000BDE8F081002184F8CB108521204601F099
:101CC000F1FE05460DB12846F2E726B9C82002F01C
:101CD0008BFC2846ECE700BF94F8CB00012805D028
:101CE00038467F1C4FF6FF718842F5D34FF6FF70E0
:101CF000874201D30320DBE72846D9E72DE9F041ED
:101D000080460E46002700244046FFF7B1F80446FF
:101D100014B90420BDE8F081002184F8D0108A2194
:101D2000204601F0BFFE05460DB12846F2E726B970
:101D3000C82002F059FC2846ECE700BF94F8D00018
:101D4000012805D038467F1C4FF6FF718842F5D335
:101D50004FF6FF70874201D30320DBE72846D9E71F
:101D60002DE9F04180460E46002700244046FFF74B
:101D70007FF8044614B90420BDE8F081002184F8FE
:101D8000C9103821204601F08DFE05460DB12846C8
:101D9000F2E726B9C82002F027FC2846ECE700BF8E
:101DA00094F8C900012805D038467F1C4FF6FF7112
:101DB0008842F5D34FF6FF70874201D30320DBE75B
:101DC0002846D9E72DE9F04180460E460027002439
:101DD0004046FFF74DF8044614B90420BDE8F081F1
:101DE000002184F8CA103921204601F05BFE054627
:101DF0000DB12846F2E726B9C82002F0F5FB2846C7
:101E0000ECE700BF94F8CA00012805D038467F1CD3
:101E10004FF6FF718842F5D34FF6FF70874201D32A
:101E20000320DBE72846D9E72DE9F04180460E463E
:101E3000002700244046FFF71BF8044614B904208D
:101E4000BDE8F081002184F8C0101A21204601F07D
:101E500029FE05460DB12846F2E726B9C82002F052
:101E6000C3FB2846ECE700BF94F8C000012805D06A
:101E700038467F1C4FF6FF718842F5D34FF6FF704E
:101E8000874201D30320DBE72846D9E72DE9F0415B
:101E900080460E46002700244046FEF7E9FF044630
:101EA00014B90420BDE8F081002184F8BF10192185
:101EB000204601F0F7FD05460DB12846F2E726B9A8
:101EC000C82002F091FB2846ECE700BF94F8BF0061
:101ED000012805D038467F1C4FF6FF718842F5D3A4
:101EE0004FF6FF70874201D30320DBE72846D9E78E
:101EF0002DE9F04180460E46002700244046FEF7BB
:101F0000B7FF044614B90420BDE8F0810021E17553
:101F10005521204601F0C6FD05460DB12846F3E7E0
:101F200026B9C82002F060FB2846EDE700BFE07D3F
:101F3000012805D038467F1C4FF6FF718842F6D342
:101F40004FF6FF70874201D30320DDE72846DBE729
:101F50002DE9F04180460E46002700244046FEF75A
:101F600087FF044614B90420BDE8F081002184F8FD
:101F7000D4109421204601F095FD05460DB1284668
:101F8000F2E726B9C82002F02FFB2846ECE700BF95
:101F900094F8D400012805D038467F1C4FF6FF7115
:101FA0008842F5D34FF6FF70874201D30320DBE769
:101FB0002846D9E72DE9F04180460E460027002447
:101FC0004046FEF755FF044614B90420BDE8F081F1
:101FD000002184F84710FF21204601F063FD0546EB
:101FE0000DB12846F2E726B9C82002F0FDFA2846CE
:101FF000ECE700BF94F84700012805D038467F1C65
:102000004FF6FF718842F5D34FF6FF70874201D338
:102010000320DBE72846D9E770B504460D4629467C
:102020002046FFF7C7FF29462046FFF791FF2946C4
:102030002046FFF75DFF29462046FFF727FF294688
:102040002046FFF7F1FE29462046FFF7BBFE294652
:102050002046FFF785FE29462046FFF74FFE29461A
:102060002046FFF719FE29462046FFF7E3FD2946E3
:102070002046FFF7AFFD29462046FFF77BFD2946A6
:102080002046FFF745FD29462046FFF70FFD29466C
:102090002046FFF7D9FC29462046FFF7A3FC294636
:1020A0002046FFF76DFC29462046FFF737FC2946FE
:1020B0002046FFF701FC29462046FFF7CBFB2946C7
:1020C0002046FFF797FB29462046FFF761FB29468C
:1020D0002046FFF72BFB29462046FFF7F5FA294655
:1020E0002046FFF7BFFA29462046FFF789FA29461E
:1020F0002046FFF753FA29462046FFF71DFA2946E6
:102100002046FFF7E9F929462046FFF7B3F92946AB
:102110002046FFF77DF929462046FFF747F9294673
:102120002046FFF711F929462046FFF7DBF829463C
:102130002046FFF77EF829462046FFF748F8294653
:102140002046FFF712F829462046FEF7DCFF294615
:102150002046FEF7A6FF70BD2DE9F04180460E46F1
:10216000002700244046FEF783FE044614B90420ED
:10217000BDE8F081002184F844105321204601F08D
:1021800091FC05460DB12846F2E726B9C82002F0B9
:102190002BFA2846ECE700BF94F84400012805D04C
:1021A00038467F1C4FF6FF718842F5D34FF6FF701B
:1021B000874201D30320DBE72846D9E72DE9F04128
:1021C00080460E46002700244046FEF751FE044696
:1021D00014B90420BDE8F08100212176B021204609
:1021E00001F060FC05460DB12846F3E726B9C8208A
:1021F00002F0FAF92846EDE700BF207E012805D05D
:1022000038467F1C4FF6FF718842F6D34FF6FF70B9
:10221000874201D30320DDE72846DBE72DE9F041C3
:1022200080460E46002700244046FEF721FE044665
:1022300014B90420BDE8F081002184F8D5100221F2
:10224000204601F02FFC05460DB12846F2E726B9DD
:10225000C82002F0C9F92846ECE700BF94F8D50081
:10226000012805D038467F1C4FF6FF718842F5D310
:102270004FF6FF70874201D30320DBE72846D9E7FA
:102280002DE9F0410746002600243846FEF7F0FD10
:10229000044614B90420BDE8F08101213846FEF758
:1022A000C1FE05460DB12846F5E794F8DE00012889
:1022B00000D11FE00121A17501222A21204601F051
:1022C00043FB05460DB12846E5E700BF94F8DE0064
:1022D000012805D03046761C6FF07F418842F5D347
:1022E0006FF07F40864201D30320D4E7642002F0E0
:1022F000C3F900BF0120207201213846FFF78EFF8D
:1023000001213846FFF75AFF94F8D90028B92278FE
:1023100040F24B11EFA003F09DFE01213846FFF77C
:102320001BFF94ED390AB5EEC00AF1EE10FA05D1A3
:1023300022784FF4A971F6A003F08CFE00213846F4
:10234000FFF76AFE2846A6E710B500240AE004EB72
:10235000441101EB4101FD4A12F82100FFF790FF03
:10236000601CC4B2022CF2DB10BD2DE9F04107461F
:10237000002600243846FEF77BFD044614B90420ED
:10238000BDE8F08101213846FEF74CFE05460DB14F
:102390002846F5E794F8DE0008B90020F0E70021B0
:1023A000A17500222A21204601F0CEFA05460DB182
:1023B0002846E5E700BF94F8DE0028B13046761CD9
:1023C0006FF07F418842F6D36FF07F40864201D3A1
:1023D0000320D5E72846D3E710B500240AE004EB34
:1023E000441101EB4101D94A12F82100FFF7BDFF6A
:1023F000601CC4B2022CF2DB10BD2DE9F04781460F
:102400000C4617464FF0000800254846FEF730FD01
:10241000054615B90420BDE8F08795F8D800A0421C
:1024200001D10020F7E76C7422460721284601F00D
:102430008BFA06460EB13046EDE727B9C82002F008
:10244000D3F83046E7E700BF95F8D800A04206D0A1
:10245000404608F101084FF6FF718842F4D34FF669
:10246000FF70804501D30320D5E73046D3E72DE93F
:10247000F04107460D46002600243846FEF7F8FCDA
:10248000044614B90420BDE8F081B4F80C0108B981
:102490000020F8E7FE21204601F0DAFA804625B94F
:1024A000C82002F0A1F84046EDE700BFB4F80C01E7
:1024B00028B13046761C4FF6FF718842F6D34FF6AE
:1024C000FF70864201D30320DDE74046DBE72DE9BC
:1024D000F04180460E46002700244046FEF7C8FC27
:1024E000044614B90420BDE8F0810020E0710D21FC
:1024F000204601F0ADFA05460DB12846F3E726B9AE
:10250000C82002F071F82846EDE700BFE079012805
:1025100005D038467F1C4FF6FF718842F6D36FF026
:102520007F40874201D30320DDE72846DBE770B513
:102530002DED028B0546B0EE408A00242846FEF7BA
:1025400097FC04461CB90420BDEC028B70BDB0EEB4
:10255000480A0A21204601F027FAF5E710B52DEDCB
:10256000028B0446B0EE408AB0EE480A0A212046AB
:1025700001F01AFABDEC028B10BD2DE9F041804646
:102580000E46002700244046FEF772FC044614B9AC
:102590000420BDE8F081002184F8BA10062120460D
:1025A00001F080FA05460DB12846F2E726B9C820A9
:1025B00002F01AF82846ECE700BF94F8BA000128A8
:1025C00005D038467F1C4FF6FF718842F5D36FF077
:1025D0007F40874201D30320DBE72846D9E72DE976
:1025E000F04104460D460027002184F8BA10062168
:1025F000204601F057FA064616B13046BDE8F08194
:1026000025B9C82001F0F0FF3046F7E700BF94F885
:10261000BA00012805D038467F1C4FF6FF7188426A
:10262000F5D36FF07F40874201D30320E6E73046C1
:10263000E4E72DE9F0412DED028B8046B0EE408AB3
:102640000E46002700244046FEF712FC044624B93B
:102650000420BDEC028BBDE8F08184ED198AB0EE58
:10266000480A1221204601F09FF905460DB128467F
:10267000EFE726B9C82001F0B7FF2846E9E700BF19
:1026800094ED4E0AB4EE480AF1EE10FA05D0384641
:102690007F1C4FF6FF718842F2D34FF6FF708742DE
:1026A00001D30320D5E72846D3E72DE9F0412DEDEE
:1026B000028B8046B0EE408A0E460027002440463A
:1026C000FEF7D6FB044624B90420BDEC028BBDE81E
:1026D000F0813DE046494C453A202E2E5C53434163
:1026E0005C5343415F4150492E632C204C494E4579
:1026F0003A2025643A2049443A2564204C61737499
:102700005F5374617465204572726F720D0A000028
:1027100046494C453A202E2E5C5343415C5343417D
:102720005F4150492E632C204C494E453A20256488
:102730003A2049443A25642043757272656E745F8D
:102740004D6178204572726F720D0A004C000020B6
:1027500084ED1A8AB0EE480A1321204601F024F9CC
:10276000054625B12846BDEC028BBDE8F08126B9AF
:10277000C82001F039FF2846F5E700BF94ED4F0A65
:10278000B4EE480AF1EE10FA05D038467F1C4FF639
:10279000FF718842F2D34FF6FF70874201D30320C6
:1027A000E1E72846DFE72DE9F0412DED028B804679
:1027B000B0EE408A0E46002700244046FEF758FB44
:1027C000044624B90420BDEC028BBDE8F08184ED01
:1027D000248AB0EE480A3321204601F0E5F8054688
:1027E0000DB12846EFE726B9C82001F0FDFE2846C6
:1027F000E9E700BF94ED590AB4EE480AF1EE10FA89
:1028000005D038467F1C4FF6FF718842F2D34FF651
:10281000FF70874201D30320D5E72846D3E72DE98F
:10282000F0412DED028B8046B0EE408A0E46002727
:1028300000244046FEF71CFB044624B90420BDECEE
:10284000028BBDE8F08184ED238AB0EE480A322184
:10285000204601F0A9F805460DB12846EFE726B954
:10286000C82001F0C1FE2846E9E700BF94ED580AF0
:10287000B4EE480AF1EE10FA05D038467F1C4FF648
:10288000FF718842F2D34FF6FF70874201D30320D5
:10289000D5E72846D3E72DE9F0412DED028B8046A0
:1028A000B0EE408A0E46002700244046FEF7E0FACC
:1028B000044624B90420BDEC028BBDE8F08184ED10
:1028C0002A8AB0EE480A8921204601F06DF80546B3
:1028D0000DB12846EFE726B9C82001F085FE28464D
:1028E000E9E700BF94ED5F0AB4EE480AF1EE10FA92
:1028F00005D038467F1C4FF6FF718842F2D34FF661
:10290000FF70874201D30320D5E72846D3E72DE99E
:10291000F0412DED028B8046B0EE408A0E46002736
:1029200000244046FEF7A4FA044624B90420BDEC76
:10293000028BBDE8F08184ED258AB0EE480A832140
:10294000204601F031F805460DB12846EFE726B9DB
:10295000C82001F049FE2846E9E700BF94ED5A0A75
:10296000B4EE480AF1EE10FA05D038467F1C4FF657
:10297000FF718842F2D34FF6FF70874201D30320E4
:10298000D5E72846D3E72DE9F0412DED028B8046AF
:10299000B0EE408A0E46002700244046FEF768FA53
:1029A000044624B90420BDEC028BBDE8F08184ED1F
:1029B000268AB0EE480A8421204600F0F5FF05463D
:1029C0000DB12846EFE726B9C82001F00DFE2846D4
:1029D000E9E700BF94ED5B0AB4EE480AF1EE10FAA5
:1029E00005D038467F1C4FF6FF718842F2D34FF670
:1029F000FF70874201D30320D5E72846D3E72DE9AE
:102A0000F04781460C4617464FF00008002548461F
:102A1000FEF72EFA054615B90420BDE8F0876C755F
:102A200022468C21284600F08FFF06460EB1304624
:102A3000F3E727B9C82001F0D7FD3046EDE700BF26
:102A400095F8DD00A04206D0404608F101084FF697
:102A5000FF718842F4D34FF6FF70804501D3032005
:102A6000DBE73046D9E72DE9F0412DED028B8046BA
:102A7000B0EE408A0E46002700244046FEF7F8F9E3
:102A8000044624B90420BDEC028BBDE8F08184ED3E
:102A9000298AB0EE480A8721204600F085FF0546C6
:102AA0000DB12846EFE726B9C82001F09DFD284664
:102AB000E9E700BF94ED5E0AB4EE480AF1EE10FAC1
:102AC00005D038467F1C4FF6FF718842F2D34FF68F
:102AD000FF70874201D30320D5E72846D3E72DE9CD
:102AE000F04781460C4617464FF00008002548463F
:102AF000FEF7BEF9054615B90420BDE8F0872C7530
:102B000022467821284600F01FFF06460EB13046C7
:102B1000F3E727B9C82001F067FD3046EDE700BFB5
:102B200095F8DC00A04206D0404608F101084FF6B7
:102B3000FF718842F4D34FF6FF70804501D3032024
:102B4000DBE73046D9E72DE9F0412DED028B8046D9
:102B5000B0EE408A0E46002700244046FEF788F972
:102B6000044624B90420BDEC028BBDE8F08184ED5D
:102B70000A8AB0EE480A7A21204600F0F3FE0546A4
:102B80000DB12846EFE726B9C82001F02DFD2846F3
:102B9000E9E700BF94ED3C0AB4EE480AF1EE10FA02
:102BA00005D038467F1C4FF6FF718842F2D34FF6AE
:102BB000FF70874201D30320D5E72846D3E72DE9EC
:102BC000F04180460E46002700244046FEF750F9AB
:102BD000044614B90420BDE8F081002184F8D61021
:102BE0008821204600F034FF05460DB12846F2E763
:102BF00026B9C82001F0F8FC2846ECE700BF94F89D
:102C0000D600012805D038467F1C4FF6FF71884258
:102C1000F5D34FF6FF70874201D30320DBE7284648
:102C2000D9E72DE9F0412DED028B8046B0EE408AC8
:102C30000E46002700244046FEF71AF9044624B940
:102C40000420BDEC028BBDE8F0819FEDFE0AC8EECA
:102C5000000AB0EE608A84ED1C8AB0EE480A20219A
:102C6000204600F0A1FE05460DB12846E9E726B949
:102C7000C82001F0B9FC2846E3E700BF94ED510AF3
:102C8000B4EE480AF1EE10FA05D038467F1C4FF634
:102C9000FF718842F2D34FF6FF70874201D30320C1
:102CA000CFE72846CDE72DE9F0412DED028B804698
:102CB000B0EE408A0E46002700244046FEF7D8F8C2
:102CC000044624B90420BDEC028BBDE8F0819FEDE1
:102CD000DD0AC8EE000AB0EE608A84ED1D8AB0EE0F
:102CE000480A2121204600F05FFE05460DB1284626
:102CF000E9E726B9C82001F077FC2846E3E700BFE2
:102D000094ED520AB4EE480AF1EE10FA05D03846B6
:102D10007F1C4FF6FF718842F2D34FF6FF70874257
:102D200001D30320CFE72846CDE72DE9F0412DED73
:102D3000028B8046B0EE408A0E46002700244046B3
:102D4000FEF796F8044624B90420BDEC028BBDE8DA
:102D5000F0819FEDBC0AC8EE000AB0EE608A84EDF7
:102D60001B8AB0EE480A1F21204600F01DFE0546D2
:102D70000DB12846E9E726B9C82001F035FC284600
:102D8000E3E700BF94ED500AB4EE480AF1EE10FA02
:102D900005D038467F1C4FF6FF718842F2D34FF6BC
:102DA000FF70874201D30320CFE72846CDE770B5F7
:102DB0002DED028B0546B0EE408A00242846FEF732
:102DC00057F804461CB90420BDEC028B70BDB0EE70
:102DD000480A0921204600F0E7FDF5E710B52DED82
:102DE000028B0446B0EE408AB0EE480A0921204624
:102DF00000F0DAFDBDEC028B10BD2DE9F0418046FC
:102E00000E46002700244046FEF732F8044614B967
:102E10000420BDE8F081002184F8B9100521204686
:102E200000F040FE05460DB12846F2E726B9C8205D
:102E300001F0DAFB2846ECE700BF94F8B90001285E
:102E400005D038467F1C4FF6FF718842F5D34FF608
:102E5000FF70874201D30320DBE72846D9E72DE93D
:102E6000F04104460D460027002184F8B9100521E1
:102E7000204600F017FE064616B13046BDE8F08148
:102E800025B9C82001F0B0FB3046F7E700BF94F841
:102E9000B900012805D038467F1C4FF6FF718842E3
:102EA000F5D34FF6FF70874201D30320E6E73046A3
:102EB000E4E72DE9F0412DED028B8046B0EE408A2B
:102EC0000E46002700244046FDF7D2FF044624B9F1
:102ED0000420BDEC028BBDE8F08184ED178AB0EED2
:102EE000480A1021204600F05FFD05460DB1284636
:102EF000EFE726B9C82001F077FB2846E9E700BFD5
:102F000094ED4C0AB4EE480AF1EE10FA05D03846BA
:102F10007F1C4FF6FF718842F2D34FF6FF70874255
:102F200001D30320D5E72846D3E72DE9F0412DED65
:102F3000028B8046B0EE408A0E46002700244046B1
:102F4000FDF796FF044624B90420BDEC028BBDE8D2
:102F5000F08184ED188AB0EE480A1121204600F075
:102F600023FD05460DB12846EFE726B9C82001F03C
:102F70003BFB2846E9E700BF94ED4D0AB4EE480A52
:102F8000F1EE10FA05D038467F1C4FF6FF718842EB
:102F9000F2D34FF6FF70874201D30320D5E72846CE
:102FA000D3E72DE9F0412DED028B8046B0EE408A4B
:102FB0000E46002700244046FDF75AFF044624B978
:102FC0000420BDEC028BBDE8F08184ED228AB0EED6
:102FD000480A3121204600F0E7FC05460DB128469D
:102FE000EFE726B9C82001F0FFFA2846E9E700BF5D
:102FF00094ED570AB4EE480AF1EE10FA05D03846BF
:103000007F1C4FF6FF718842F2D34FF6FF70874264
:1030100001D30320D5E72846D3E72DE9F0412DED74
:10302000028B8046B0EE408A0E46002700244046C0
:10303000FDF71EFF04463CB90420BDEC028BBDE841
:10304000F08100000000704484ED218AB0EE480A4F
:103050003021204600F0A8FC05460DB12846ECE7DB
:1030600026B9C82001F0C0FA2846E6E700BF94ED73
:10307000560AB4EE480AF1EE10FA05D038467F1C25
:103080004FF6FF718842F2D34FF6FF70874201D3AB
:103090000320D2E72846D0E79FEDFA0A70472DE9D2
:1030A000F04781460C4617464FF000080025484679
:1030B000FDF7DEFE054615B90420BDE8F087EC7487
:1030C00022467421284600F03FFC06460EB13046E9
:1030D000F3E727B9C82001F087FA3046EDE700BFD3
:1030E00095F8DB00A04206D0404608F101084FF6F3
:1030F000FF718842F4D34FF6FF70804501D303205F
:10310000DBE73046D9E72DE9F0412DED028B804613
:10311000B0EE408A0E46002700244046FDF7A8FE88
:10312000044624B90420BDEC028BBDE8F08184ED97
:10313000098AB0EE480A7621204600F013FC0546C5
:103140000DB12846EFE726B9C82001F04DFA284610
:10315000E9E700BF94ED3B0AB4EE480AF1EE10FA3D
:1031600005D038467F1C4FF6FF718842F2D34FF6E8
:10317000FF70874201D30320D5E72846D3E72DE926
:10318000F0412DED028B8046B0EE408A0E460027BE
:1031900000244046FDF76CFE044624B90420BDEC33
:1031A000028BBDE8F08184ED288AB0EE480A5A21EE
:1031B000204600F0F9FB05460DB12846EFE726B999
:1031C000C82001F011FA2846E9E700BF94ED5D0A36
:1031D000B4EE480AF1EE10FA05D038467F1C4FF6DF
:1031E000FF718842F2D34FF6FF70874201D303206C
:1031F000D5E72846D3E72DE9F0412DED028B804637
:10320000B0EE408A0E46002700244046FDF730FE0F
:10321000044624B90420BDEC028BBDE8F0811FED0B
:10322000770AC8EE000AB0EE608A84ED1F8AB0EE1D
:10323000480A2621204600F0B7FB05460DB1284676
:10324000E9E726B9C82001F0CFF92846E3E700BF37
:1032500094ED540AB4EE480AF1EE10FA05D038465F
:103260007F1C4FF6FF718842F2D34FF6FF70874202
:1032700001D30320CFE72846CDE72DE9F0412DED1E
:10328000028B8046B0EE408A0E460027002440465E
:10329000FDF7EEFD044624B90420BDEC028BBDE829
:1032A000F0811FED980AC8EE000AB0EE608A84ED46
:1032B000208AB0EE480A2721204600F075FB05461B
:1032C0000DB12846E9E726B9C82001F08DF9284656
:1032D000E3E700BF94ED550AB4EE480AF1EE10FAA8
:1032E00005D038467F1C4FF6FF718842F2D34FF667
:1032F000FF70874201D30320CFE72846CDE72DE9B1
:10330000F0412DED028B8046B0EE408A0E4600273C
:1033100000244046FDF7ACFD044624B90420BDEC72
:10332000028BBDE8F0811FEDB90AC8EE000AB0EECD
:10333000608A84ED1E8AB0EE480A2521204600F0FE
:1033400033FB05460DB12846E9E726B9C82001F050
:103350004BF92846E3E700BF94ED530AB4EE480A60
:10336000F1EE10FA05D038467F1C4FF6FF71884207
:10337000F2D34FF6FF70874201D30320CFE72846F0
:10338000CDE770B52DED028B0546B0EE408A0024E6
:103390002846FDF76DFD04461CB90420BDEC028BE8
:1033A00070BDB0EE480A0821204600F0FDFAF5E7AE
:1033B00010B52DED028B0446B0EE408AB0EE480AFF
:1033C0000821204600F0F0FABDEC028B10BD2DE97B
:1033D000F04180460E46002700244046FDF748FD98
:1033E000044614B90420BDE8F081002184F8B81027
:1033F0000421204600F056FB05460DB12846F2E7B1
:1034000026B9C82001F0F0F82846ECE700BF94F890
:10341000B800012805D038467F1C4FF6FF7188425E
:10342000F5D34FF6FF70874201D30320DBE7284630
:10343000D9E72DE9F04104460D460027002184F824
:10344000B8100421204600F02DFB064616B1304688
:10345000BDE8F08125B9C82001F0C6F83046F7E78D
:1034600000BF94F8B800012805D038467F1C4FF6FD
:10347000FF718842F5D34FF6FF70874204D30320D3
:10348000E6E700000080BB453046E1E72DE9F04764
:1034900081460C4617464FF0000800254846FDF7C8
:1034A000E7FC054615B90420BDE8F087AC74224658
:1034B0007021284600F048FA06460EB13046F3E780
:1034C00027B9C82001F090F83046EDE700BF95F825
:1034D000DA00A04206D0404608F101084FF6FF711D
:1034E0008842F4D34FF6FF70804501D30320DBE719
:1034F0003046D9E72DE9F0412DED028B8046B0EE44
:10350000408A0E46002700244046FDF7B1FC0446E1
:1035100024B90420BDEC028BBDE8F08184ED088A5B
:10352000B0EE480A7221204600F01CFA05460DB1A3
:103530002846EFE726B9C82001F056F82846E9E703
:1035400000BF94ED3A0AB4EE480AF1EE10FA05D045
:1035500038467F1C4FF6FF718842F2D34FF6FF705A
:10356000874201D30320D5E72846D3E72DE9F04170
:103570002DED028B8046B0EE408A0E4600270024D7
:103580004046FDF775FC044624B90420BDEC028BCF
:10359000BDE8F08184ED278AB0EE480A5821204624
:1035A00000F002FA05460DB12846EFE726B9C8201B
:1035B00001F01AF82846E9E700BF94ED5C0AB4EE82
:1035C000480AF1EE10FA05D038467F1C4FF6FF711D
:1035D0008842F2D34FF6FF70874201D30320D5E72C
:1035E0002846D3E72DE9F0412DED028B8046B0EE61
:1035F000408A0E46002700244046FDF739FC044669
:1036000024B90420BDEC028BBDE8F08184ED2D8A45
:10361000B0EE480A7E21204600F0C6F905460DB1FD
:103620002846EFE726B9C82000F0DEFF2846E9E784
:1036300000BF94ED620AB4EE480AF1EE10FA05D02C
:1036400038467F1C4FF6FF718842F2D34FF6FF7069
:10365000874201D30320D5E72846D3E72DE9F0417F
:103660002DED028B8046B0EE408A0E4600270024E6
:103670004046FDF7FDFB044624B90420BDEC028B57
:10368000BDE8F08184ED0D8AB0EE480A6B2120463A
:1036900000F068F905460DB12846EFE726B9C820C5
:1036A00000F0A2FF2846E9E700BF94ED410AB4EE1E
:1036B000480AF1EE10FA05D038467F1C4FF6FF712C
:1036C0008842F2D34FF6FF70874201D30320D5E73B
:1036D0002846D3E72DE9F0412DED028B8046B0EE70
:1036E000408A0E46002700244046FDF7C1FB0446F1
:1036F00024B90420BDEC028BBDE8F08184ED0E8A74
:10370000B0EE480A6D21204600F02CF905460DB1B7
:103710002846EFE726B9C82000F066FF2846E9E70B
:1037200000BF94ED420AB4EE480AF1EE10FA05D05B
:1037300038467F1C4FF6FF718842F2D34FF6FF7078
:10374000874201D30320D5E72846D3E72DE9F0418E
:103750002DED028B8046B0EE408A0E4600270024F5
:103760004046FDF785FB044624B90420BDEC028BDE
:10377000BDE8F08184ED0B8AB0EE480A6121204655
:1037800000F0F0F805460DB12846EFE726B9C8204D
:1037900000F02AFF2846E9E700BF94ED3F0AB4EEA7
:1037A000480AF1EE10FA05D038467F1C4FF6FF713B
:1037B0008842F2D34FF6FF70874201D30320D5E74A
:1037C0002846D3E72DE9F0412DED028B8046B0EE7F
:1037D000408A0E46002700244046FDF749FB044678
:1037E00024B90420BDEC028BBDE8F08184ED0C8A85
:1037F000B0EE480A6321204600F0B4F805460DB14A
:103800002846EFE726B9C82000F0EEFE2846E9E793
:1038100000BF94ED400AB4EE480AF1EE10FA05D06C
:1038200038467F1C4FF6FF718842F2D34FF6FF7087
:10383000874201D30320D5E72846D3E72DE9F04797
:1038400007460D4690464FF0000900242846FDF734
:103850000FFB044614B10320BDE8F0873846FDF79E
:1038600007FB04460CB90420F6E7002020742A4622
:103870003D21204600F0F6F806460EB13046EBE753
:103880002570B8F1000F04D1C82000F0ADFE30461D
:10389000E2E700BF207C012806D0484609F1010973
:1038A0004FF6FF718842F5D34FF6FF70814502D382
:1038B00027700320D0E73046CEE72DE9F0410446DB
:1038C0000D460027002184F8D4109421204600F0F2
:1038D000E9F8064616B13046BDE8F08125B9C820A2
:1038E00000F082FE3046F7E700BF94F8D4000128CC
:1038F00005D038467F1C4FF6FF718842F5D34FF64E
:10390000FF70874201D30320E6E73046E4E700007A
:103910002DE9F04104460E461746002500E06D1CD7
:103920002078E1683A464B683146984718B1E0681C
:103930004078A842F3D8E0684078A84202D8022034
:10394000BDE8F0810020FBE7F8B506460C461546B9
:103950008DF800408DF80150022269463046FFF78D
:10396000D7FFF8BD70B52DED028B82B006460C4630
:10397000B0EE408A9FEDF70A28EE000ABDEEC00ABD
:1039800010EE100A05B28DF80440280A8DF80500E3
:10399000E8B28DF80600032201A93046FFF7B8FF10
:1039A00002B0BDEC028B70BD70B52DED028B82B004
:1039B00006460D46B0EE408A092D01D05A2D0CD195
:1039C0009FEDE50AC8EE000A9FEDE40A20EE800AAA
:1039D000BDEEC00A10EE104A23E0082D01D0582D8C
:1039E0000CD196ED390AC8EE000A9FEDDC0A20EEF4
:1039F000800ABDEEC00A10EE104A12E07E2D08D1FA
:103A00009FEDD70A28EE000ABDEEC00A10EE104A5C
:103A100007E09FEDD20A28EE000ABDEEC00A10EEC4
:103A2000104A8DF80050200E8DF80100200C8DF802
:103A30000200200A8DF80300E0B28DF80400052290
:103A400069463046FFF764FF02B0BDEC028B70BDE3
:103A500038B505460C460094012269462846FFF712
:103A600057FF38BD7CB504460D4616468DF800500C
:103A700060788DF80100A0788DF80200E0788DF86C
:103A8000030020798DF8040060798DF80500A07995
:103A90008DF806008DF80760082269462046FFF77A
:103AA00037FF7CBD38B505460C46009401226946B7
:103AB0002846FFF72DFF38BDCA7A752A24D007DCC7
:103AC0006AB12B2A32D0552A0CD0712A34D115E094
:103AD000792A1FD08B2A23D0B02A2DD108E00A7B67
:103AE00002722AE00A7B80F8D8200123C37524E003
:103AF0000A7B80F8D920012303761EE00A7B80F838
:103B0000DA200123437618E00A7B80F8DB200123CA
:103B1000837612E00A7B80F8DC200123C3760CE078
:103B20000A7B80F8DD200123037706E00A7B80F81A
:103B3000DE200123437700E000BF00BF704790F80C
:103B40000C1101F0010121B101224FF487710A54D7
:103B500003E000224FF487710A5490F80C1101F031
:103B6000020121B1012240F20F110A5403E00022A8
:103B700040F20F110A5490F80C1101F0040121B128
:103B800001224FF488710A5403E000224FF4887137
:103B90000A5490F80C1101F0080121B1012240F201
:103BA00011110A5403E0002240F211110A5490F856
:103BB0000C1101F0100121B101224FF489710A5456
:103BC00003E000224FF489710A5490F80C1101F0BF
:103BD000200121B1012240F213110A5403E0002216
:103BE00040F213110A5490F80C1101F0400121B178
:103BF00001224FF48A710A5403E000224FF48A71C3
:103C00000A5490F80C1101F0800121B1012240F218
:103C100015110A5403E0002240F215110A54B0F8BD
:103C20000C1101F4807121B101224FF48B710A54FF
:103C300003E000224FF48B710A54B0F80C1101F428
:103C4000007121B1012240F217110A5403E0002251
:103C500040F217110A54B0F80C1101F4806121B13F
:103C600001224FF48C710A5403E000224FF48C714E
:103C70000A54B0F80C1101F4784121B1012240F24C
:103C800019110A5403E0002240F219110A54704736
:103C900030B503460C46207B000205B2607B05432D
:103CA000E07A452809D1A8B200EE900AF8EE600A41
:103CB0009FED2C1A80EE810A07E000EE905AF8EE94
:103CC000E00A9FED241A80EE810AE07A6C285DD02C
:103CD0000EDC602848D006DC452816D053281AD0C0
:103CE0005F286CD12FE0622844D0642867D147E078
:103CF00077281CD004DC6E284ED073285FD110E0EA
:103D00007B281AD0FF285AD14CE083ED380A0121D4
:103D100083F8431054E083ED390A012183F84410FD
:103D20004EE083ED3A0A012183F83C1048E083ED30
:103D30003B0A012183F83D1042E083ED3C0A01215A
:103D400083F83E103CE083ED3D0A012183F84510E5
:103D500036E00000000080430080BB450000804B3F
:103D6000337396420000804483ED3E0A012183F8BC
:103D7000461025E083ED3F0A012183F83F101FE044
:103D800083ED400A012183F8401019E083ED410AD8
:103D9000012183F8411013E083ED420A012183F8E9
:103DA00042100DE0FCEEC00A10EE900AA3F80C01E0
:103DB0001846FFF7C4FE012183F8471000E000BF5A
:103DC00000BF30BD10B50B7B1A064B7B42EA0342A5
:103DD0008B7B42EA0322CB7B1A43CB7A052B02D0A2
:103DE000CB7A5B2B0CD100EE902AB8EEE01A5FED97
:103DF000251AC1EE210A1FED281A20EE810A26E0BD
:103E0000CB7A042B02D0CB7A592B0CD100EE902A1E
:103E1000B8EEE01A5FED2F1AC1EE210A90ED391AC3
:103E200020EE810A13E0CB7A7F2B08D100EE902A96
:103E3000F8EEE00A1FED361A80EE810A07E000EE88
:103E4000902AF8EEE00A1FED3B1A80EE810ACB7A49
:103E5000242B73D01DDC192B6AD010DC152B4FD00E
:103E600006DC042B3AD0052B3ED0062B67D141E06F
:103E7000162B4BD0172B4FD0182BF7D152E01A3BF3
:103E80000A2B5CD2DFE803F05C62636D7BF5F5F52D
:103E90008A945B2B6FD010DC372B6DD006DC342B73
:103EA0006BD0352B6AD0362BE0D199E0382B70D00F
:103EB000392B6FD0592BD9D1AAE0862B6BD006DCD9
:103EC0007D2B69D07F2B68D0852BCFD1ADE08A2B9D
:103ED00078D0922B77D0932BC8D1BEE080ED470AE3
:103EE000012480F8B840C5E080ED480A012480F83C
:103EF000B940BFE080ED490A012480F8BA40B9E03A
:103F000080ED4A0A012480F8BB40B3E080ED4B0A03
:103F1000012480F8BC40ADE080ED4C0A012480F81B
:103F2000BD40A7E080ED4D0A012480F8BE40A1E02D
:103F300080ED4E0A012480F8BF409BE044E098E009
:103F400080ED4F0A012480F8C04093E092E0DFED5D
:103F5000F70A60EE200AC0ED500A012480F8C14043
:103F600088E0DFEDF20A60EE200AC0ED510A01247C
:103F700080F8C2407EE051E038E02FE02FE0DFED36
:103F8000EB0A60EE200AC0ED520A012480F8C3401B
:103F900070E031E036E04EE046E064E0DFEDE30A59
:103FA00060EE200AC0ED530A012480F8C44061E0AD
:103FB000DFEDDE0A60EE200AC0ED540A012480F82D
:103FC000C54057E03DE042E0DFEDD80A60EE200A50
:103FD000C0ED550A012480F8C6404BE04AE049E0B4
:103FE00080ED560A012480F8C74043E080ED570A6F
:103FF000012480F8C8403DE080ED580A012480F893
:10400000C94037E080ED590A012480F8CA4031E008
:1040100080ED5C0A012480F8CD402BE080ED5D0A44
:10402000012480F8CE4025E024E080ED5A0A0124E6
:1040300080F8CB401EE080ED5B0A012480F8CC4084
:1040400018E080ED5F0A012480F8D04012E080ED96
:10405000600A012480F8D1400CE080ED610A01245F
:1040600080F8D24006E080ED620A012480F8D34057
:1040700000E000BF00BF10BD10B502460B7B180664
:104080004B7B40EA03408B7B40EA032000EE100AA2
:10409000B8EEC00A5FEDCF0A80EE201A82ED491A11
:1040A000CB7B18060B7C40EA034000EE100AF8EECA
:1040B000C00A9FED9F1A80EE810A5FEDD90A20EEBB
:1040C000200A82ED480A4B7C18068B7C40EA0340AC
:1040D00000EE100AF8EEC00A9FED951A80EE810AF4
:1040E000D2ED390A20EE200A82ED470A012482F837
:1040F000D44010BD10B50246002006E001F10B03CC
:10410000441C1C5D531C1C54401C0628F6DB012378
:1041100082F8D53010BD10B503460C46207B01282F
:1041200072D10020D871E07A33286ED01BDCA0F168
:1041300007002C286AD2DFE800F05393989D696944
:10414000EEA2A7AFB4BCC1C669696969696969694A
:104150006969C7CCD1696969D6DBE069696A69694F
:1041600069E5E6E7EFF4782846D01CDC6B286BD0D5
:104170000CDC5A2872D004DC3D2870D0582845D178
:10418000DDE0612856D06328F9D158E0722842D08A
:1041900004DC6D285DD07028F1D125E0742827D08B
:1041A0007628ECD13CE0882873D00CDC832871D0D1
:1041B00004DC7A2839D07E28E1D1E8E084286AD06E
:1041C0008728DCD1CFE0902870D004DC89286ED01D
:1041D0008C28D4D114E091286AD0FE28CFD1DBE01E
:1041E000587C83F8D800F5E0987C83F8DA00F1E099
:1041F000D87C83F8DB00EDE0187D83F8DC00E9E093
:10420000587D83F8DD00E5E0E5E093E0E1E0987DAE
:1042100083F8DE00DEE093ED080A83ED3A0AD9E088
:1042200093ED090A83ED3B0AD4E093ED0A0A83ED8E
:104230003C0ACFE093ED0B0A83ED3F0ACAE093ED11
:104240000C0A83ED400AC5E093ED0D0A83ED410AA7
:10425000C0E093ED0E0A83ED420ABBE074E0B5E0E6
:1042600093ED120A83ED470AB4E093ED130A83ED50
:10427000480AAFE093ED140A83ED490AAAE093EDF2
:10428000150A83ED4A0AA5E093ED160A83ED4B0A61
:10429000A0E088E05DE061E093ED170A83ED4C0A51
:1042A00098E093ED180A83ED4D0A93E065E05FE036
:1042B00068E093ED190A83ED4E0A8BE093ED1A0A3C
:1042C00083ED4F0A86E085E093ED1B0A83ED500AEB
:1042D00080E093ED1C0A83ED510A7BE093ED1D0A0B
:1042E00083ED520A76E093ED1E0A83ED530A71E0E6
:1042F00093ED1F0A83ED540A6CE093ED200A83EDE1
:10430000550A67E066E065E093ED210A83ED560A01
:1043100060E006E000E056E093ED220A83ED570AE4
:1043200058E093ED230A83ED580A53E000007044EF
:104330000000804E93ED240A83ED590A4AE093ED84
:10434000270A83ED5C0A45E093ED280A83ED5D0AB8
:1043500040E093ED250A83ED5A0A3BE093ED260AEF
:1043600083ED5B0A36E093ED290A83ED5E0A31E0C6
:1043700093ED2A0A83ED5F0A2CE093ED2B0A83ED7F
:10438000600A27E093ED2C0A83ED610A22E093EDA9
:104390002D0A83ED620A1DE00020A3F80C011846E7
:1043A000FFF7CDFB16E09FED800A83ED490A9FEDF4
:1043B0007F0A83ED5A0A9FED7E0A83ED5B0A012195
:1043C00083F8D61006E00120D87103E001201874AC
:1043D00000E000BF00BF10BD70B504462078FCF7B8
:1043E00047FD054605B970BD01206872E07A532883
:1043F00076D03BDC1D2874D018DC162872D00DDC7A
:10440000052870D005DC80B302286DD004286CD15B
:1044100095E006286AD01528F9D193E017380628C8
:1044200063D2DFE800F091929394959635286FD08F
:104430000EDC24286DD006DC1E286BD022286AD022
:104440002328E4D189E02B285DD03428DFD186E011
:10445000382871D004DC36286FD03728D7D181E0D6
:1044600039286BD04528D2D156E045E0792848D08C
:104470001CDC642858D00EDC5F2852D006DC55289E
:104480003BD0592871D05B282FD16FE0602849D0EC
:1044900062282AD147E06C380C287DD2DFE800F092
:1044A000457C467C7C2F7C3E7C307C3F8B2829D011
:1044B0000EDC85285CD006DC7B2831D07D2856D0E8
:1044C0007F2869D159E0862853D08A2864D151E0E9
:1044D000942857D00BDC92284DD093285CD14BE028
:1044E0001BE037E02FE02BE051E055E029E0B02859
:1044F00004D0FF2850D11AE000BF00BF00BF00BFAA
:1045000000BF00BF00BF21462846FFF7D5FA48E0AC
:1045100026E023E01FE01FE000BF00BF00BF00BF98
:1045200000BF00BF00BF00BF00BF00BF00BF2146EB
:104530002846FFF7ADFB34E015E012E014E000BFC1
:1045400000BF00BF00BF00BF00BF00BF00BF00BF73
:1045500000BF00BF00BF00BF00BF00BF00BF00BF63
:1045600000BF00BF00BF00BF00BF00BF00BF00BF53
:1045700000BF00BF00BF00BF00BF21462846FFF7B5
:1045800021FC0EE021462846FFF776FD09E0214692
:104590002846FFF7AFFD04E021462846FFF7BBFDA4
:1045A00000BF00BF00BF1EE7000000000000FE4289
:1045B0000000FEC210B504466FF0040000F08EF952
:1045C000E11704EB5171C1F3C701394A117010466C
:1045D000007800EB4001C1EBC0104FF6FF7101EA1B
:1045E000C0003449088010BD0146314A12784A4360
:1045F0004FF0E0235A6100229A611A46126942F094
:1046000001021A6100BF4FF0E022106900F00102C0
:104610001AB100F48032002AF5D04FF0E02212697E
:1046200022F001024FF0E0231A6100229A617047E4
:104630000146204A12884A434FF0E0235A61002283
:104640009A611A46126942F001021A6100BF4FF0E6
:10465000E022106900F001021AB100F48032002A51
:10466000F5D04FF0E022126922F001024FF0E02372
:104670001A6100229A61704770B504464FF40770C2
:1046800094FBF0F0C6B24FF4077094FBF0F100FB1E
:10469000114085B205E04FF40770FFF7C9FF701EA7
:1046A000C6B2002EF7D115B12846FFF7C1FF70BD85
:1046B000340000203600002000BF704700BF4B4A86
:1046C000128802F04002002AF9D0C2B2474B9A8009
:1046D000704710B588B004460121084600F043FC3D
:1046E0000121102000F097FC07220921404800F02A
:1046F00024FA07220A213E4800F01FFA4FF4C06056
:10470000069002208DF81C008DF81D0000208DF809
:104710001E0001208DF81F0006A9354800F082F91F
:1047200002940020ADF80C00ADF80E00ADF81000BA
:10473000ADF814000C20ADF8120002A92B4800F0CF
:10474000CCFD25208DF8040003208DF805008DF8A0
:10475000060001208DF8070001A800F072F8012280
:1047600040F22551214800F0F6FE40211F4800F09C
:1047700024FF01211D4800F038FE08B010BD10B51F
:1047800040F22551194800F021FF30B11948007856
:1047900018B9164880881749087010BD00BF134922
:1047A000098801F040010029F9D01049888070473C
:1047B00000B502460B4603E01078FFF7EFFF521CEE
:1047C000181EA3F101018BB2F6D100BD10B5202156
:1047D000064800F0E5FE38B12021044800F0EDFE67
:1047E00002488088C0B210BD0020FCE700100140E4
:1047F00000000240000000200948804709480047A7
:10480000FEE7FEE7FEE7FEE7FEE7FEE7FEE7FEE780
:10481000FEE7FEE704480549054A064B70470000DD
:10482000B9060008AD010008C8030020C80900202F
:10483000C8050020C805002032490143324A1160F2
:10484000704770B5002100230F22C4781CB32E4C92
:10485000246804F4E064C4F5E064C4F30721C1F102
:104860000404E3B20A4144789C40E1B284781440E5
:1048700021430C07210E254C05786155047804F07E
:104880001F050124AC4005786D11AD0005F1E02550
:10489000C5F8004109E0047804F01F050124AC408C
:1048A0001B4D0678761145F8264070BD194A0A401E
:1048B0000243154B1B1F1A60704739B1124A121D73
:1048C00012680243104B1B1D1A6006E00E4A121DAF
:1048D000126882430C4B1B1D1A607047042808D1D4
:1048E0004FF0E021096941F004014FF0E02211612D
:1048F00007E04FF0E021096921F004014FF0E022C8
:10490000116170470000FA050CED00E000E400E0E2
:1049100080E100E080FFFF1F10B504469848844204
:1049200008D10121084600F087FB0021012000F09A
:1049300083FB76E09348844208D10121022000F0F5
:104940007BFB0021022000F077FB6AE08E48844266
:1049500008D10121042000F06FFB0021042000F0A9
:104960006BFB5EE08948844208D10121082000F0F9
:1049700063FB0021082000F05FFB52E08448844282
:1049800008D10121102000F057FB0021102000F079
:1049900053FB46E07F48844208D10121202000F0EB
:1049A0004BFB0021202000F047FB3AE07A4884428C
:1049B00008D10121402000F03FFB0021402000F001
:1049C0003BFB2EE07548844208D10121802000F095
:1049D00033FB0021802000F02FFB22E0704884424E
:1049E00008D10121801500F027FB0021A01500F05F
:1049F00023FB16E06B48844208D10121401500F0EA
:104A00001BFB0021601500F017FB0AE0664884429A
:104A100007D10121001500F00FFB0021201500F047
:104A20000BFB10BDF0B50A4600210023002400BF97
:104A30003DE0012505FA01F3156805EA03049C42EF
:104A400034D105684F000326BE40B5430560157993
:104A50004E00B5400668354305601579012D02D03A
:104A60001579022D16D185684F000326BE40B54347
:104A7000856055794E00B540866835438560456848
:104A800001268E40B5434560456896798E40B6B2A2
:104A900035434560C5684F000326BE40B543C56039
:104AA000D5794E00B540C6683543C560491C10290C
:104AB000BFD3F0BD4FF6FF7101600021017141715C
:104AC0008171C171704708B54FF480320092009A2D
:104AD0000A430092009AC261C161009AC261C26930
:104AE0000092C269009208BD0246002013690B4083
:104AF0000BB1012000E0002070470146086980B238
:104B000070470246002053690B400BB1012000E0C2
:104B1000002070470146486980B2704701837047A2
:104B2000418370470AB1018300E0418370474161CE
:104B3000704742694A4042617047F0B50023002443
:104B40004D07ED0E02FA05F3CE1000F1200555F8E1
:104B500026504E07F70E0F26BE40B543CF1000F18A
:104B6000200646F82750CE1000F1200555F82650B3
:104B700045EA0304CE1000F1200545F82640F0BDBB
:104B8000000002400004024000080240000C024005
:104B9000001002400014024000180240001C0240B5
:104BA000002002400024024000280240F64800682D
:104BB00040F00100F44908600020F3490831086022
:104BC000F1480068F1490840EF490860F048091DC4
:104BD0000860F048EC4984310860ED481038091D40
:104BE0000860E948006820F48020E7490860002058
:104BF000E5490C310860E4498C31086070470021B8
:104C0000E14A921C117011460870704710B50146B8
:104C10000022002300204A11012A02D1DA4C236825
:104C200008E0022A03D1D84C7034236802E0D64C45
:104C30007434236801F01F02012494401C400CB11D
:104C4000012000E0002010BD38B5002000900024B5
:104C5000002500BF3120FFF7D9FF05460098401C12
:104C600000900098B0F5A04F01D0002DF2D0312077
:104C7000FFF7CCFF08B1012400E00024204638BD36
:104C800001460020C04A106820F0F80040EAC10048
:104C900010607047C049086070470021BA4A7032FE
:104CA00011701170012802D004280AD104E00121FA
:104CB000B54A7032117005E00521B34A70321170A7
:104CC00000E000BF00BF7047B4490860704770B58E
:104CD000049C41EA82150126C6EB530645EA0645C7
:104CE000054345EA0465A84E361D356070BDAA49E6
:104CF0000866704710B5830143EA016343EA027313
:104D0000A14C8434236010BDA3498866704710B558
:104D1000830143EA016343EA02739B4C88342360B6
:104D200010BD9D49086770479B49C864704702469B
:104D30000020954B0833186820F0EC6042EA01032C
:104D40001843914B083318607047024600208E4B81
:104D50000833186820F0784042EA010318438A4B70
:104D600008331860704701460020874A08321068EF
:104D700020F0030008431060704783480830006843
:104D800000F00C007047014600207F4A083210688E
:104D900020F0F000084310607047014600207A4A76
:104DA0000832106820F4E050084310607047014654
:104DB0000020754A0832106820F4604040EAC100C3
:104DC00010607047F0B50021002200240225002663
:104DD00002236D4F08373F6807F00C0121B1042909
:104DE00005D0082937D105E06D4F076036E06D4FDB
:104DF000076033E0644F3F1D3F68C7F38056624F42
:104E00003F1D3F6807F03F036EB1664FB7FBF3F7F6
:104E1000DFF874C10CF1040CDCF800C0CCF3881C82
:104E200007FB0CF40CE05E4FB7FBF3F7DFF858C15B
:104E30000CF1040CDCF800C0CCF3881C07FB0CF46C
:104E4000514F3F1D3F68C7F301477F1C7D00B4FBF6
:104E5000F5F7076002E0524F076000BF00BF4A4FFE
:104E600008373F6807F0F00109094F4F7A5C07687F
:104E7000D7404760444F08373F6807F4E051890A3C
:104E8000494F7A5C4768D74087603F4F08373F6893
:104E900007F46041490B444F7A5C4768D740C760CC
:104EA000F0BD002100F44072B2F5407F0AD1364ACD
:104EB0000832116821F4F8113C4A02401143324A89
:104EC00008321160304A70321268C0F30B031A4383
:104ED0002D4B70331A607047304944390860704771
:104EE0002E494039086070473149086070470146D3
:104EF0000020254A8C32106820F01F004A1E104303
:104F0000214A8C3210607047014600201E4A8C32C4
:104F1000106820F4F8504A1E40EA02201A4A8C32E7
:104F20001060704701460020174A8C32106820F448
:104F3000401008431060704701460020124A8C322E
:104F4000106820F4400008431060704701460020BC
:104F50000D4A8C32106820F44030084310607047CE
:104F600014490860704739B1074A30321268024369
:104F7000054B30331A6006E0034A30321268824330
:104F8000014B30331A60704700380240FFFFF6EAE9
:104F9000103000240030002000004742800E4742BD
:104FA0000024F40000127A003C000020FFFCFF0FF8
:104FB0005C014742E011474229B1934A126802431B
:104FC000914B1A6004E0904A126882438E4B1A603B
:104FD000704739B18C4A121D126802438A4B1B1D5F
:104FE0001A6006E0884A121D12688243864B1B1D18
:104FF0001A60704739B1844A0C3212680243824BFE
:105000000C331A6006E0804A0C32126882437E4BF1
:105010000C331A60704739B17B4A10321268024370
:10502000794B10331A6006E0774A103212688243D7
:10503000754B10331A60704739B1734A243A1268BD
:105040000243714B243B1A6006E06F4A243A12680F
:1050500082436D4B243B1A60704739B16A4A203A4B
:1050600012680243684B203B1A6006E0664A203A09
:1050700012688243644B203B1A60704739B1624A20
:105080001C3A12680243604B1C3B1A6006E05E4A01
:105090001C3A126882435C4B1C3B1A60704739B162
:1050A000594A143A12680243574B143B1A6006E0FF
:1050B000554A143A12688243534B143B1A607047A6
:1050C00039B1514A103A126802434F4B103B1A60F3
:1050D00006E04D4A103A126882434B4B103B1A606F
:1050E000704739B1484A1C3212680243464B1C33A0
:1050F0001A6006E0444A1C3212688243424B1C3359
:105100001A60704739B1404A2032126802433E4B60
:1051100020331A6006E03C4A2032126882433A4B40
:1051200020331A60704739B1374A2432126802437B
:10513000354B24331A6006E0334A24321268824326
:10514000314B24331A60704739B12F4A2C32126820
:1051500002432D4B2C331A6006E02B4A2C32126886
:105160008243294B2C331A60704739B1264A3032BA
:1051700012680243244B30331A6006E0224A303270
:1051800012688243204B30331A607047012808D1DF
:105190001D493C31096841F008011B4A3C3211604D
:1051A00007E019493C31096821F00801164A3C32F0
:1051B0001160704739B1144A273A12780243124BF2
:1051C000273B1A7006E0104A273A127882430E4BAA
:1051D000273B1A7070470C484030006840F08070E0
:1051E000094940310860704701460020064A283AC4
:1051F00012680A400AB1012000E00020704702490D
:1052000026390870704700003438024010B5044653
:10521000FA48844208D101211020FFF751FF0021F4
:105220001020FFF74DFF57E0F548844209D10121D6
:105230004804FFF734FF00214FF40030FFF72FFF41
:105240004AE0F048844209D101218804FFF727FF92
:1052500000214FF48020FFF722FF3DE0EA4884421E
:1052600009D10121C804FFF71AFF00214FF40020E3
:10527000FFF715FF30E0E548844209D10121080518
:10528000FFF70DFF00214FF48010FFF708FF23E028
:10529000DF48844208D101212020FFF711FF0021BF
:1052A0002020FFF70DFF17E0DA48844209D10121E1
:1052B0008807FFF7F4FE00214FF08040FFF7EFFE74
:1052C0000AE0D548844207D101214005FFF7E7FEF7
:1052D00000216005FFF7E3FE10BD2DE9FF470546FD
:1052E0000E460024A14600BFA046B08900B100BF11
:1052F0002C8A24F44054F08804432C82AC8941F277
:105300000C608443B08831890843718908430443A1
:10531000AC81AC8A24F44074B0890443AC82684602
:10532000FFF750FDB548854202D0B948854202D109
:10533000DDF80C9001E0DDF80890A88900F4004049
:1053400040B109EBC90000EB091031684900B0FB1E
:10535000F1F707E009EBC90000EB0910316889009B
:10536000B0FBF1F76420B7FBF0F0040120096421E1
:1053700001FB1078A88900F4004040B1322000EB16
:10538000C800B0FBF1F000F00700044308E0322051
:1053900000EB08106421B0FBF1F000F00F000443B3
:1053A0002C81BDE8FF874FF41651016000218180F8
:1053B000C18001810C21418100218181704710B59C
:1053C00002460020108A20F470600B884C8823432A
:1053D0008C882343CC8823431843108210BD0021BE
:1053E000018041808180C180704721B1828942F46F
:1053F0000052828104E082894DF6FF731A40828157
:105400007047028B02F47F420283028B0A430283BD
:10541000704721B1828942F40042828103E082898F
:10542000C2F30E028281704721B1828A42F4006287
:10543000828204E0828A4FF2FF731A4082827047B0
:10544000C1F308028280704701468888C0F30800D3
:105450007047028A4FF6F0731A400282028A0A43AA
:105460000282704721B1828942F00202828104E007
:1054700082894FF6FD731A408281704782894FF20C
:10548000FF731A40828182890A4382817047028AAF
:105490004FF6DF731A400282028A0A430282704783
:1054A00021B1028A42F48042028204E0028A4BF671
:1054B000FF731A4002827047818941F001018181A6
:1054C000704721B1828A42F00802828204E0828A17
:1054D0004FF6F7731A4082827047028BD2B2028372
:1054E000028B42EA01220283704721B1828A42F094
:1054F0002002828204E0828A4FF6DF731A408282A1
:10550000704721B1828A42F01002828204E0828ACE
:105510004FF6EF731A4082827047828A4FF6FB7310
:105520001A408282828A0A438282704721B1828A2B
:1055300042F00202828204E0828A4FF6FD731A4032
:10554000828270471AB1838A0B43838202E0838A86
:105550008B4383827047F0B5034600240026002564
:10556000002040F66A17B94200D100BF1846C1F3C7
:10557000421401F01F06012707FA06F5012C01D19C
:105580000C3004E0022C01D1103000E014301AB1CC
:1055900007682F43076002E00768AF430760F0BD6C
:1055A00002460020B1F5007F00D100BF13880B40F8
:1055B0000BB1012000E00020704701F40072B2F549
:1055C000007F00D100BFCA430280704770B5024619
:1055D000002400230025002040F66A16B14200D1C5
:1055E00000BFC1F3421501F01F03012606FA03F3C1
:1055F000012D13D19689334017E0000000100140BF
:105600000044004000480040004C00400050004072
:105610000014014000780040007C0040022D02D1BF
:10562000168A334001E0968A33400C12012606FAAE
:1056300004F41688344013B10CB1012000E00020BE
:1056400070BD10B50022002340F66A14A14200D1BB
:1056500000BF0A1201249440A3B2DC43048010BDB1
:1056600010B50446FE48844209D101214806FFF7DF
:1056700016FD00214FF00070FFF711FD08E0012139
:105680008806FFF70CFD00214FF08060FFF707FD53
:1056900010BD30B5024600200023146824F0020437
:1056A0001460146844F00104146000E05B1C54684A
:1056B00004F001041CB94FF6FF74A342F6D15468FC
:1056C00004F001040CB900206CE08C79012C04D1A9
:1056D000146844F08004146003E0146824F080042B
:1056E0001460CC79012C04D1146844F04004146097
:1056F00003E0146824F0400414600C7A012C04D1F7
:10570000146844F02004146003E0146824F02004BA
:1057100014604C7A012C04D1146844F01004146015
:1057200003E0146824F0100414608C7A012C04D176
:10573000146844F00804146003E0146824F00804BA
:105740001460CC7A012C04D1146844F00404146071
:1057500003E0146824F0040414608C78A407CD7866
:1057600044EA05640D7944EA05444D7944EA055458
:105770000D886D1E2C43D461146824F0010414605C
:10578000002300E05B1C546804F001041CB14FF6D8
:10579000FF74A342F6D1546804F001040CB1002058
:1057A00000E0012030BD10B50021837A012202FA09
:1057B00003F1AC4A126842F00102AA4B1A60A94AEE
:1057C0001C3212688A43A74B1C331A60027BCAB989
:1057D000A44A0C3212688A43A24B0C331A604288E6
:1057E000C38842EA03439F4A4032847A42F8343005
:1057F0000288838842EA03439A4A4032847A02EB61
:10580000C4025360027B012A19D1964A0C321268F5
:105810000A43944B0C331A604288038842EA0343DC
:10582000904A4032847A42F83430C288838842EA0F
:1058300003438C4A4032847A02EBC4025360C27A3A
:105840003AB9884A121D12688A43864B1B1D1A609A
:1058500006E0844A121D12680A43824B1B1D1A601F
:10586000028932B97F4A143212688A437D4B14335D
:105870001A600289012A06D17A4A143212680A4350
:10588000784B14331A60427B012A06D1754A1C32C8
:1058900012680A43734B1C331A60724A126822F072
:1058A0000102704B1A6010BD00218171C17101723B
:1058B00041728172C1728170C17003210171022134
:1058C00041710121018070476649096841F0010179
:1058D000644A11601146096843F60E729143614AA9
:1058E00011601146096841EA0021116011460968FA
:1058F00021F001011160704721B1026842F4803249
:10590000026003E0026822F4803202607047E1B175
:10591000026842F0800202604FF4C272125842F4F0
:1059200080734FF4C27213504FF4CA72125842F48B
:1059300080734FF4CA7213504FF4D272125842F46B
:1059400080734FF4D27213501BE0026822F0800281
:1059500002604FF4C272125822F480734FF4C27284
:1059600013504FF4CA72125822F480734FF4CA7263
:1059700013504FF4D272125822F480734FF4D27243
:105980001350704710B502460020936803F08063FF
:10599000B3F1806F00D110E0936803F00063B3F1BE
:1059A000006F01D1012008E0936803F08053B3F148
:1059B000805F01D1022000E00420042879D002F5A4
:1059C000C07303EB00131B6803F0010402F5C073FE
:1059D00003EB00131C600B7A7BB94B7A0C8843EA0B
:1059E000445302F5C07404EB00142468234302F509
:1059F000C07404EB0014236010E00B7A4C6843EA97
:105A0000C4034C7A234302F5C07404EB00142468E9
:105A1000234302F5C07404EB001423608B7A03F077
:105A20000F038B7202F5C07303EB00135B6823F066
:105A30000F0402F5C07303EB00135C6002F5C07342
:105A400003EB00135B688C7A234302F5C07404EB0C
:105A5000001463608B7B1C064B7B44EA034403E029
:105A600000640040006600400B7B44EA0323CC7ACC
:105A7000234302F5C07404EB0014A3608B7C1C0666
:105A80004B7C44EA03440B7C44EA0323CC7B234352
:105A900002F5C07404EB0014E36002F5C07303EB7D
:105AA00000131B6843F0010402F5C07303EB0013FD
:105AB0001C6010BD10B50246002321B1012907D09A
:105AC00002290FD109E09068F94C00EA04030BE0C9
:105AD0009068F84C00EA040306E09068F64C00EA8F
